{
  "contractName": "FetchFromArray",
  "abi": [
    {
      "inputs": [],
      "stateMutability": "nonpayable",
      "type": "constructor"
    },
    {
      "anonymous": false,
      "inputs": [
        {
          "indexed": true,
          "internalType": "bytes32",
          "name": "id",
          "type": "bytes32"
        }
      ],
      "name": "ChainlinkCancelled",
      "type": "event"
    },
    {
      "anonymous": false,
      "inputs": [
        {
          "indexed": true,
          "internalType": "bytes32",
          "name": "id",
          "type": "bytes32"
        }
      ],
      "name": "ChainlinkFulfilled",
      "type": "event"
    },
    {
      "anonymous": false,
      "inputs": [
        {
          "indexed": true,
          "internalType": "bytes32",
          "name": "id",
          "type": "bytes32"
        }
      ],
      "name": "ChainlinkRequested",
      "type": "event"
    },
    {
      "anonymous": false,
      "inputs": [
        {
          "indexed": true,
          "internalType": "address",
          "name": "from",
          "type": "address"
        },
        {
          "indexed": true,
          "internalType": "address",
          "name": "to",
          "type": "address"
        }
      ],
      "name": "OwnershipTransferRequested",
      "type": "event"
    },
    {
      "anonymous": false,
      "inputs": [
        {
          "indexed": true,
          "internalType": "address",
          "name": "from",
          "type": "address"
        },
        {
          "indexed": true,
          "internalType": "address",
          "name": "to",
          "type": "address"
        }
      ],
      "name": "OwnershipTransferred",
      "type": "event"
    },
    {
      "anonymous": false,
      "inputs": [
        {
          "indexed": true,
          "internalType": "bytes32",
          "name": "requestId",
          "type": "bytes32"
        },
        {
          "indexed": false,
          "internalType": "string",
          "name": "id",
          "type": "string"
        }
      ],
      "name": "RequestFirstId",
      "type": "event"
    },
    {
      "inputs": [],
      "name": "acceptOwnership",
      "outputs": [],
      "stateMutability": "nonpayable",
      "type": "function"
    },
    {
      "inputs": [],
      "name": "id",
      "outputs": [
        {
          "internalType": "string",
          "name": "",
          "type": "string"
        }
      ],
      "stateMutability": "view",
      "type": "function",
      "constant": true
    },
    {
      "inputs": [],
      "name": "owner",
      "outputs": [
        {
          "internalType": "address",
          "name": "",
          "type": "address"
        }
      ],
      "stateMutability": "view",
      "type": "function",
      "constant": true
    },
    {
      "inputs": [
        {
          "internalType": "address",
          "name": "to",
          "type": "address"
        }
      ],
      "name": "transferOwnership",
      "outputs": [],
      "stateMutability": "nonpayable",
      "type": "function"
    },
    {
      "inputs": [
        {
          "internalType": "string",
          "name": "_jobId",
          "type": "string"
        }
      ],
      "name": "requestFirstId",
      "outputs": [
        {
          "internalType": "bytes32",
          "name": "requestId",
          "type": "bytes32"
        }
      ],
      "stateMutability": "nonpayable",
      "type": "function"
    },
    {
      "inputs": [
        {
          "internalType": "bytes32",
          "name": "_requestId",
          "type": "bytes32"
        },
        {
          "internalType": "string",
          "name": "_id",
          "type": "string"
        }
      ],
      "name": "fulfill",
      "outputs": [],
      "stateMutability": "nonpayable",
      "type": "function"
    },
    {
      "inputs": [],
      "name": "withdrawLink",
      "outputs": [],
      "stateMutability": "nonpayable",
      "type": "function"
    },
    {
      "inputs": [],
      "name": "contractBalances",
      "outputs": [
        {
          "internalType": "uint256",
          "name": "eth",
          "type": "uint256"
        },
        {
          "internalType": "uint256",
          "name": "link",
          "type": "uint256"
        }
      ],
      "stateMutability": "view",
      "type": "function",
      "constant": true
    }
  ],
  "bytecode": "0x608060405260016004553480156200001657600080fd5b50338060008073ffffffffffffffffffffffffffffffffffffffff168273ffffffffffffffffffffffffffffffffffffffff16036200008c576040517f08c379a00000000000000000000000000000000000000000000000000000000081526004016200008390620003ac565b60405180910390fd5b81600660006101000a81548173ffffffffffffffffffffffffffffffffffffffff021916908373ffffffffffffffffffffffffffffffffffffffff160217905550600073ffffffffffffffffffffffffffffffffffffffff168173ffffffffffffffffffffffffffffffffffffffff1614620001145762000113816200019260201b60201c565b5b5050506200013c73326c977e6efc84e512bb9c30f76e30c160ed06fb620002c360201b60201c565b6200016173c4881c30d43b18a93ebe773f184bf03008fb41cb6200030760201b60201c565b600a670de0b6b3a764000060016200017a919062000407565b62000186919062000481565b6009819055506200052b565b3373ffffffffffffffffffffffffffffffffffffffff168173ffffffffffffffffffffffffffffffffffffffff160362000203576040517f08c379a0000000000000000000000000000000000000000000000000000000008152600401620001fa9062000509565b60405180910390fd5b80600760006101000a81548173ffffffffffffffffffffffffffffffffffffffff021916908373ffffffffffffffffffffffffffffffffffffffff1602179055508073ffffffffffffffffffffffffffffffffffffffff16600660009054906101000a900473ffffffffffffffffffffffffffffffffffffffff1673ffffffffffffffffffffffffffffffffffffffff167fed8889f560326eb138920d842192f0eb3dd22b4f139c87a2c57538e05bae127860405160405180910390a350565b80600260006101000a81548173ffffffffffffffffffffffffffffffffffffffff021916908373ffffffffffffffffffffffffffffffffffffffff16021790555050565b80600360006101000a81548173ffffffffffffffffffffffffffffffffffffffff021916908373ffffffffffffffffffffffffffffffffffffffff16021790555050565b600082825260208201905092915050565b7f43616e6e6f7420736574206f776e657220746f207a65726f0000000000000000600082015250565b6000620003946018836200034b565b9150620003a1826200035c565b602082019050919050565b60006020820190508181036000830152620003c78162000385565b9050919050565b6000819050919050565b7f4e487b7100000000000000000000000000000000000000000000000000000000600052601160045260246000fd5b60006200041482620003ce565b91506200042183620003ce565b92508282026200043181620003ce565b915082820484148315176200044b576200044a620003d8565b5b5092915050565b7f4e487b7100000000000000000000000000000000000000000000000000000000600052601260045260246000fd5b60006200048e82620003ce565b91506200049b83620003ce565b925082620004ae57620004ad62000452565b5b828204905092915050565b7f43616e6e6f74207472616e7366657220746f2073656c66000000000000000000600082015250565b6000620004f16017836200034b565b9150620004fe82620004b9565b602082019050919050565b600060208201905081810360008301526200052481620004e2565b9050919050565b6122a6806200053b6000396000f3fe608060405234801561001057600080fd5b50600436106100885760003560e01c80638dc654a21161005b5780638dc654a2146100f0578063af640d0f146100fa578063ecec031014610118578063f2fde38b1461014857610088565b80632163885a1461008d57806337441996146100ac57806379ba5097146100c85780638da5cb5b146100d2575b600080fd5b610095610164565b6040516100a3929190611314565b60405180910390f35b6100c660048036038101906100c191906114cd565b6101f7565b005b6100d0610349565b005b6100da6104e0565b6040516100e7919061156a565b60405180910390f35b6100f861050a565b005b610102610657565b60405161010f9190611604565b60405180910390f35b610132600480360381019061012d9190611626565b6106e5565b60405161013f919061167e565b60405180910390f35b610162600480360381019061015d91906116c5565b610816565b005b600080479150600061017461082a565b90508073ffffffffffffffffffffffffffffffffffffffff166370a08231306040518263ffffffff1660e01b81526004016101af919061156a565b602060405180830381865afa1580156101cc573d6000803e3d6000fd5b505050506040513d601f19601f820116820180604052508101906101f0919061171e565b9150509091565b816005600082815260200190815260200160002060009054906101000a900473ffffffffffffffffffffffffffffffffffffffff1673ffffffffffffffffffffffffffffffffffffffff163373ffffffffffffffffffffffffffffffffffffffff1614610299576040517f08c379a0000000000000000000000000000000000000000000000000000000008152600401610290906117bd565b60405180910390fd5b6005600082815260200190815260200160002060006101000a81549073ffffffffffffffffffffffffffffffffffffffff0219169055807f7cc135e0cebb02c3480ae5d74d377283180a2601f8f644edf7987b009316c63a60405160405180910390a2827f5b72487f892feba565865a27f191da8fb1e852651bd966bfb0a41fc272c54aea8360405161032c9190611604565b60405180910390a2816008908161034391906119e9565b50505050565b600760009054906101000a900473ffffffffffffffffffffffffffffffffffffffff1673ffffffffffffffffffffffffffffffffffffffff163373ffffffffffffffffffffffffffffffffffffffff16146103d9576040517f08c379a00000000000000000000000000000000000000000000000000000000081526004016103d090611b07565b60405180910390fd5b6000600660009054906101000a900473ffffffffffffffffffffffffffffffffffffffff16905033600660006101000a81548173ffffffffffffffffffffffffffffffffffffffff021916908373ffffffffffffffffffffffffffffffffffffffff1602179055506000600760006101000a81548173ffffffffffffffffffffffffffffffffffffffff021916908373ffffffffffffffffffffffffffffffffffffffff1602179055503373ffffffffffffffffffffffffffffffffffffffff168173ffffffffffffffffffffffffffffffffffffffff167f8be0079c531659141344cd1fd0a4f28419497f9722a3daafe3b4186f6b6457e060405160405180910390a350565b6000600660009054906101000a900473ffffffffffffffffffffffffffffffffffffffff16905090565b610512610854565b600061051c61082a565b90508073ffffffffffffffffffffffffffffffffffffffff1663a9059cbb338373ffffffffffffffffffffffffffffffffffffffff166370a08231306040518263ffffffff1660e01b8152600401610574919061156a565b602060405180830381865afa158015610591573d6000803e3d6000fd5b505050506040513d601f19601f820116820180604052508101906105b5919061171e565b6040518363ffffffff1660e01b81526004016105d2929190611b27565b6020604051808303816000875af11580156105f1573d6000803e3d6000fd5b505050506040513d601f19601f820116820180604052508101906106159190611b88565b610654576040517f08c379a000000000000000000000000000000000000000000000000000000000815260040161064b90611c01565b60405180910390fd5b50565b600880546106649061180c565b80601f01602080910402602001604051908101604052809291908181526020018280546106909061180c565b80156106dd5780601f106106b2576101008083540402835291602001916106dd565b820191906000526020600020905b8154815290600101906020018083116106c057829003601f168201915b505050505081565b6000806107026106f4846108e6565b30633744199660e01b61090f565b90506107836040518060400160405280600481526020017f706f7374000000000000000000000000000000000000000000000000000000008152506040518060400160405280601d81526020017f687474703a2f2f6c6f63616c686f73743a383038302f67657464617461000000815250836109409092919063ffffffff16565b6108026040518060400160405280600481526020017f70617468000000000000000000000000000000000000000000000000000000008152506040518060400160405280600581526020017f6861736864000000000000000000000000000000000000000000000000000000815250836109409092919063ffffffff16565b61080e81600954610973565b915050919050565b61081e610854565b610827816109aa565b50565b6000600260009054906101000a900473ffffffffffffffffffffffffffffffffffffffff16905090565b600660009054906101000a900473ffffffffffffffffffffffffffffffffffffffff1673ffffffffffffffffffffffffffffffffffffffff163373ffffffffffffffffffffffffffffffffffffffff16146108e4576040517f08c379a00000000000000000000000000000000000000000000000000000000081526004016108db90611c6d565b60405180910390fd5b565b6000808290506000815103610901576000801b91505061090a565b60208301519150505b919050565b610917611274565b61091f611274565b61093685858584610ad8909392919063ffffffff16565b9150509392505050565b610957828460800151610b8890919063ffffffff16565b61096e818460800151610b8890919063ffffffff16565b505050565b60006109a2600360009054906101000a900473ffffffffffffffffffffffffffffffffffffffff168484610bad565b905092915050565b3373ffffffffffffffffffffffffffffffffffffffff168173ffffffffffffffffffffffffffffffffffffffff1603610a18576040517f08c379a0000000000000000000000000000000000000000000000000000000008152600401610a0f90611cd9565b60405180910390fd5b80600760006101000a81548173ffffffffffffffffffffffffffffffffffffffff021916908373ffffffffffffffffffffffffffffffffffffffff1602179055508073ffffffffffffffffffffffffffffffffffffffff16600660009054906101000a900473ffffffffffffffffffffffffffffffffffffffff1673ffffffffffffffffffffffffffffffffffffffff167fed8889f560326eb138920d842192f0eb3dd22b4f139c87a2c57538e05bae127860405160405180910390a350565b610ae0611274565b610af08560800151610100610c79565b508385600001818152505082856020019073ffffffffffffffffffffffffffffffffffffffff16908173ffffffffffffffffffffffffffffffffffffffff16815250508185604001907bffffffffffffffffffffffffffffffffffffffffffffffffffffffff191690817bffffffffffffffffffffffffffffffffffffffffffffffffffffffff191681525050849050949350505050565b610b958260038351610ce3565b610ba88183610e6890919063ffffffff16565b505050565b6000806004549050600181610bc29190611d28565b6004819055506000634042994660e01b60008087600001513089604001518760018c6080015160000151604051602401610c03989796959493929190611dec565b604051602081830303815290604052907bffffffffffffffffffffffffffffffffffffffffffffffffffffffff19166020820180517bffffffffffffffffffffffffffffffffffffffffffffffffffffffff83818316178352505050509050610c6e86838684610e8a565b925050509392505050565b610c816112e1565b6000602083610c909190611ea0565b14610cbc57602082610ca29190611ea0565b6020610cae9190611ed1565b82610cb99190611d28565b91505b81836020018181525050604051808452600081528281016020016040525082905092915050565b60178167ffffffffffffffff1611610d1a57610d148160058460ff16901b60ff16178461101f90919063ffffffff16565b50610e63565b60ff8167ffffffffffffffff1611610d7057610d49601860058460ff16901b178461101f90919063ffffffff16565b50610d6a8167ffffffffffffffff1660018561103f9092919063ffffffff16565b50610e62565b61ffff8167ffffffffffffffff1611610dc757610da0601960058460ff16901b178461101f90919063ffffffff16565b50610dc18167ffffffffffffffff1660028561103f9092919063ffffffff16565b50610e61565b63ffffffff8167ffffffffffffffff1611610e2057610df9601a60058460ff16901b178461101f90919063ffffffff16565b50610e1a8167ffffffffffffffff1660048561103f9092919063ffffffff16565b50610e60565b610e3d601b60058460ff16901b178461101f90919063ffffffff16565b50610e5e8167ffffffffffffffff1660088561103f9092919063ffffffff16565b505b5b5b5b505050565b610e706112e1565b610e8283846000015151848551611061565b905092915050565b60003084604051602001610e9f929190611fb4565b604051602081830303815290604052805190602001209050846005600083815260200190815260200160002060006101000a81548173ffffffffffffffffffffffffffffffffffffffff021916908373ffffffffffffffffffffffffffffffffffffffff160217905550807fb5e6e01e79f91267dc17b4e6314d5d4d03593d2ceee0fbb452b750bd70ea5af960405160405180910390a2600260009054906101000a900473ffffffffffffffffffffffffffffffffffffffff1673ffffffffffffffffffffffffffffffffffffffff16634000aea08685856040518463ffffffff1660e01b8152600401610f9593929190611fe0565b6020604051808303816000875af1158015610fb4573d6000803e3d6000fd5b505050506040513d601f19601f82011682018060405250810190610fd89190611b88565b611017576040517f08c379a000000000000000000000000000000000000000000000000000000000815260040161100e90612090565b60405180910390fd5b949350505050565b6110276112e1565b6110378384600001515184611150565b905092915050565b6110476112e1565b6110588485600001515185856111a6565b90509392505050565b6110696112e1565b825182111561107757600080fd5b846020015182856110889190611d28565b11156110bd576110bc8560026110ad886020015188876110a89190611d28565b611234565b6110b791906120b0565b611250565b5b6000808651805187602083010193508088870111156110dc5787860182525b60208701925050505b6020841061112357805182526020826110fe9190611d28565b915060208161110d9190611d28565b905060208461111c9190611ed1565b93506110e5565b60006001856020036101000a03905080198251168184511681811785525050508692505050949350505050565b6111586112e1565b8360200151831061117e5761117d846002866020015161117891906120b0565b611250565b5b83518051602085830101848153818603611199576001820183525b5050508390509392505050565b6111ae6112e1565b846020015184836111bf9190611d28565b11156111e7576111e685600286856111d79190611d28565b6111e191906120b0565b611250565b5b60006001836101006111f99190612225565b6112039190611ed1565b905085518386820101858319825116178152815185880111156112265784870182525b505085915050949350505050565b6000818311156112465782905061124a565b8190505b92915050565b6000826000015190506112638383610c79565b5061126e8382610e68565b50505050565b6040518060a0016040528060008019168152602001600073ffffffffffffffffffffffffffffffffffffffff16815260200160007bffffffffffffffffffffffffffffffffffffffffffffffffffffffff19168152602001600081526020016112db6112e1565b81525090565b604051806040016040528060608152602001600081525090565b6000819050919050565b61130e816112fb565b82525050565b60006040820190506113296000830185611305565b6113366020830184611305565b9392505050565b6000604051905090565b600080fd5b600080fd5b6000819050919050565b61136481611351565b811461136f57600080fd5b50565b6000813590506113818161135b565b92915050565b600080fd5b600080fd5b6000601f19601f8301169050919050565b7f4e487b7100000000000000000000000000000000000000000000000000000000600052604160045260246000fd5b6113da82611391565b810181811067ffffffffffffffff821117156113f9576113f86113a2565b5b80604052505050565b600061140c61133d565b905061141882826113d1565b919050565b600067ffffffffffffffff821115611438576114376113a2565b5b61144182611391565b9050602081019050919050565b82818337600083830152505050565b600061147061146b8461141d565b611402565b90508281526020810184848401111561148c5761148b61138c565b5b61149784828561144e565b509392505050565b600082601f8301126114b4576114b3611387565b5b81356114c484826020860161145d565b91505092915050565b600080604083850312156114e4576114e3611347565b5b60006114f285828601611372565b925050602083013567ffffffffffffffff8111156115135761151261134c565b5b61151f8582860161149f565b9150509250929050565b600073ffffffffffffffffffffffffffffffffffffffff82169050919050565b600061155482611529565b9050919050565b61156481611549565b82525050565b600060208201905061157f600083018461155b565b92915050565b600081519050919050565b600082825260208201905092915050565b60005b838110156115bf5780820151818401526020810190506115a4565b60008484015250505050565b60006115d682611585565b6115e08185611590565b93506115f08185602086016115a1565b6115f981611391565b840191505092915050565b6000602082019050818103600083015261161e81846115cb565b905092915050565b60006020828403121561163c5761163b611347565b5b600082013567ffffffffffffffff81111561165a5761165961134c565b5b6116668482850161149f565b91505092915050565b61167881611351565b82525050565b6000602082019050611693600083018461166f565b92915050565b6116a281611549565b81146116ad57600080fd5b50565b6000813590506116bf81611699565b92915050565b6000602082840312156116db576116da611347565b5b60006116e9848285016116b0565b91505092915050565b6116fb816112fb565b811461170657600080fd5b50565b600081519050611718816116f2565b92915050565b60006020828403121561173457611733611347565b5b600061174284828501611709565b91505092915050565b7f536f75726365206d75737420626520746865206f7261636c65206f662074686560008201527f2072657175657374000000000000000000000000000000000000000000000000602082015250565b60006117a7602883611590565b91506117b28261174b565b604082019050919050565b600060208201905081810360008301526117d68161179a565b9050919050565b7f4e487b7100000000000000000000000000000000000000000000000000000000600052602260045260246000fd5b6000600282049050600182168061182457607f821691505b602082108103611837576118366117dd565b5b50919050565b60008190508160005260206000209050919050565b60006020601f8301049050919050565b600082821b905092915050565b60006008830261189f7fffffffffffffffffffffffffffffffffffffffffffffffffffffffffffffffff82611862565b6118a98683611862565b95508019841693508086168417925050509392505050565b6000819050919050565b60006118e66118e16118dc846112fb565b6118c1565b6112fb565b9050919050565b6000819050919050565b611900836118cb565b61191461190c826118ed565b84845461186f565b825550505050565b600090565b61192961191c565b6119348184846118f7565b505050565b5b818110156119585761194d600082611921565b60018101905061193a565b5050565b601f82111561199d5761196e8161183d565b61197784611852565b81016020851015611986578190505b61199a61199285611852565b830182611939565b50505b505050565b600082821c905092915050565b60006119c0600019846008026119a2565b1980831691505092915050565b60006119d983836119af565b9150826002028217905092915050565b6119f282611585565b67ffffffffffffffff811115611a0b57611a0a6113a2565b5b611a15825461180c565b611a2082828561195c565b600060209050601f831160018114611a535760008415611a41578287015190505b611a4b85826119cd565b865550611ab3565b601f198416611a618661183d565b60005b82811015611a8957848901518255600182019150602085019450602081019050611a64565b86831015611aa65784890151611aa2601f8916826119af565b8355505b6001600288020188555050505b505050505050565b7f4d7573742062652070726f706f736564206f776e657200000000000000000000600082015250565b6000611af1601683611590565b9150611afc82611abb565b602082019050919050565b60006020820190508181036000830152611b2081611ae4565b9050919050565b6000604082019050611b3c600083018561155b565b611b496020830184611305565b9392505050565b60008115159050919050565b611b6581611b50565b8114611b7057600080fd5b50565b600081519050611b8281611b5c565b92915050565b600060208284031215611b9e57611b9d611347565b5b6000611bac84828501611b73565b91505092915050565b7f556e61626c6520746f207472616e736665720000000000000000000000000000600082015250565b6000611beb601283611590565b9150611bf682611bb5565b602082019050919050565b60006020820190508181036000830152611c1a81611bde565b9050919050565b7f4f6e6c792063616c6c61626c65206279206f776e657200000000000000000000600082015250565b6000611c57601683611590565b9150611c6282611c21565b602082019050919050565b60006020820190508181036000830152611c8681611c4a565b9050919050565b7f43616e6e6f74207472616e7366657220746f2073656c66000000000000000000600082015250565b6000611cc3601783611590565b9150611cce82611c8d565b602082019050919050565b60006020820190508181036000830152611cf281611cb6565b9050919050565b7f4e487b7100000000000000000000000000000000000000000000000000000000600052601160045260246000fd5b6000611d33826112fb565b9150611d3e836112fb565b9250828201905080821115611d5657611d55611cf9565b5b92915050565b60007fffffffff0000000000000000000000000000000000000000000000000000000082169050919050565b611d9181611d5c565b82525050565b600081519050919050565b600082825260208201905092915050565b6000611dbe82611d97565b611dc88185611da2565b9350611dd88185602086016115a1565b611de181611391565b840191505092915050565b600061010082019050611e02600083018b61155b565b611e0f602083018a611305565b611e1c604083018961166f565b611e29606083018861155b565b611e366080830187611d88565b611e4360a0830186611305565b611e5060c0830185611305565b81810360e0830152611e628184611db3565b90509998505050505050505050565b7f4e487b7100000000000000000000000000000000000000000000000000000000600052601260045260246000fd5b6000611eab826112fb565b9150611eb6836112fb565b925082611ec657611ec5611e71565b5b828206905092915050565b6000611edc826112fb565b9150611ee7836112fb565b9250828203905081811115611eff57611efe611cf9565b5b92915050565b6000611f20611f1b611f1684611529565b6118c1565b611529565b9050919050565b6000611f3282611f05565b9050919050565b6000611f4482611f27565b9050919050565b60008160601b9050919050565b6000611f6382611f4b565b9050919050565b6000611f7582611f58565b9050919050565b611f8d611f8882611f39565b611f6a565b82525050565b6000819050919050565b611fae611fa9826112fb565b611f93565b82525050565b6000611fc08285611f7c565b601482019150611fd08284611f9d565b6020820191508190509392505050565b6000606082019050611ff5600083018661155b565b6120026020830185611305565b81810360408301526120148184611db3565b9050949350505050565b7f756e61626c6520746f207472616e73666572416e6443616c6c20746f206f726160008201527f636c650000000000000000000000000000000000000000000000000000000000602082015250565b600061207a602383611590565b91506120858261201e565b604082019050919050565b600060208201905081810360008301526120a98161206d565b9050919050565b60006120bb826112fb565b91506120c6836112fb565b92508282026120d4816112fb565b915082820484148315176120eb576120ea611cf9565b5b5092915050565b60008160011c9050919050565b6000808291508390505b60018511156121495780860481111561212557612124611cf9565b5b60018516156121345780820291505b8081029050612142856120f2565b9450612109565b94509492505050565b600082612162576001905061221e565b81612170576000905061221e565b81600181146121865760028114612190576121bf565b600191505061221e565b60ff8411156121a2576121a1611cf9565b5b8360020a9150848211156121b9576121b8611cf9565b5b5061221e565b5060208310610133831016604e8410600b84101617156121f45782820a9050838111156121ef576121ee611cf9565b5b61221e565b61220184848460016120ff565b9250905081840481111561221857612217611cf9565b5b81810290505b9392505050565b6000612230826112fb565b915061223b836112fb565b92506122687fffffffffffffffffffffffffffffffffffffffffffffffffffffffffffffffff8484612152565b90509291505056fea2646970667358221220a457b29be22d3c4fb554c55e35f956d7ba46c12cd265fad28a3fe231aa04970864736f6c63430008110033",
  "immutableReferences": {},
  "source": "// SPDX-License-Identifier: MIT\r\npragma solidity ^0.8.7;\r\n\r\nimport \"@chainlink/contracts/src/v0.8/ChainlinkClient.sol\";\r\nimport \"@chainlink/contracts/src/v0.8/ConfirmedOwner.sol\";\r\n\r\n/**\r\n * Request testnet LINK and ETH here: https://faucets.chain.link/\r\n * Find information on LINK Token Contracts and get the latest ETH and LINK faucets here: https://docs.chain.link/docs/link-token-contracts/\r\n */\r\n\r\n/**\r\n * THIS IS AN EXAMPLE CONTRACT THAT USES HARDCODED VALUES FOR CLARITY.\r\n * THIS IS AN EXAMPLE CONTRACT THAT USES UN-AUDITED CODE.\r\n * DO NOT USE THIS CODE IN PRODUCTION.\r\n */\r\n\r\ncontract FetchFromArray is ChainlinkClient, ConfirmedOwner {\r\n    using Chainlink for Chainlink.Request;\r\n\r\n    string public id;\r\n\r\n    uint256 private fee;\r\n\r\n    event RequestFirstId(bytes32 indexed requestId, string id);\r\n\r\n    /**\r\n     * @notice Initialize the link token and target oracle\r\n     *\r\n     * Goerli Testnet details:\r\n     * Link Token: 0x326C977E6efc84E512bB9C30f76E30c160eD06FB\r\n     * Oracle: 0xCC79157eb46F5624204f47AB42b3906cAA40eaB7 (Chainlink DevRel)\r\n     * jobId: 7d80a6386ef543a3abb52817f6707e3b\r\n     *\r\n     */\r\n    constructor() ConfirmedOwner(msg.sender) {\r\n        setChainlinkToken(0x326C977E6efc84E512bB9C30f76E30c160eD06FB);\r\n        setChainlinkOracle(0xC4881C30d43B18A93EBE773F184BF03008fb41CB);\r\n        fee = (1 * LINK_DIVISIBILITY) / 10; // 0,1 * 10**18 (Varies by network and job)\r\n    }\r\n\r\n    /**\r\n     * Create a Chainlink request to retrieve API response, find the target\r\n     * data which is located in a list\r\n     */\r\n    function requestFirstId(\r\n        string memory _jobId\r\n    ) public returns (bytes32 requestId) {\r\n        Chainlink.Request memory req = buildChainlinkRequest(\r\n            stringToBytes32(_jobId),\r\n            address(this),\r\n            this.fulfill.selector\r\n        );\r\n\r\n        // Set the URL to perform the GET request on\r\n        // API docs: https://www.coingecko.com/en/api/documentation?\r\n        req.add(\"post\", \"http://localhost:8080/getdata\");\r\n\r\n        // Set the path to find the desired data in the API response, where the response format is:\r\n        // [{\r\n        //  \"id\": \"bitcoin\",\r\n        //  \"symbol\": btc\",\r\n        // ...\r\n        // },\r\n        //{\r\n        // ...\r\n        // .. }]\r\n        // request.add(\"path\", \"0.id\"); // Chainlink nodes prior to 1.0.0 support this format\r\n        req.add(\"path\", \"hashd\"); // Chainlink nodes 1.0.0 and later support this format\r\n        // Sends the request\r\n        return sendChainlinkRequest(req, fee);\r\n    }\r\n\r\n    /**\r\n     * Receive the response in the form of string\r\n     */\r\n    function fulfill(\r\n        bytes32 _requestId,\r\n        string memory _id\r\n    ) public recordChainlinkFulfillment(_requestId) {\r\n        emit RequestFirstId(_requestId, _id);\r\n        id = _id;\r\n    }\r\n\r\n    /**\r\n     * Allow withdraw of Link tokens from the contract\r\n     */\r\n    function withdrawLink() public onlyOwner {\r\n        LinkTokenInterface link = LinkTokenInterface(chainlinkTokenAddress());\r\n        require(\r\n            link.transfer(msg.sender, link.balanceOf(address(this))),\r\n            \"Unable to transfer\"\r\n        );\r\n    }\r\n\r\n    function stringToBytes32(\r\n        string memory source\r\n    ) private pure returns (bytes32 result) {\r\n        bytes memory tempEmptyStringTest = bytes(source);\r\n        if (tempEmptyStringTest.length == 0) {\r\n            return 0x0;\r\n        }\r\n\r\n        assembly {\r\n            // solhint-disable-line no-inline-assembly\r\n            result := mload(add(source, 32))\r\n        }\r\n    }\r\n\r\n    function contractBalances()\r\n        public\r\n        view\r\n        returns (uint256 eth, uint256 link)\r\n    {\r\n        eth = address(this).balance;\r\n\r\n        LinkTokenInterface linkContract = LinkTokenInterface(\r\n            chainlinkTokenAddress()\r\n        );\r\n        link = linkContract.balanceOf(address(this));\r\n    }\r\n}\r\n",
  "sourcePath": "E:\\BE Blockchain\\New folder\\contracts\\DataContract.sol",
  "compiler": {
    "name": "solc",
    "version": "0.8.17+commit.8df45f5f.Emscripten.clang"
  },
  "schemaVersion": "3.4.11",
  "updatedAt": "2023-01-15T12:01:12.542Z",
  "networkType": "ethereum",
  "devdoc": {
    "kind": "dev",
    "methods": {},
    "version": 1
  },
  "userdoc": {
    "kind": "user",
    "methods": {
      "acceptOwnership()": {
        "notice": "Allows an ownership transfer to be completed by the recipient."
      },
      "constructor": {
        "notice": "Initialize the link token and target oracle Goerli Testnet details: Link Token: 0x326C977E6efc84E512bB9C30f76E30c160eD06FB Oracle: 0xCC79157eb46F5624204f47AB42b3906cAA40eaB7 (Chainlink DevRel) jobId: 7d80a6386ef543a3abb52817f6707e3b"
      },
      "fulfill(bytes32,string)": {
        "notice": "Receive the response in the form of string"
      },
      "owner()": {
        "notice": "Get the current owner"
      },
      "requestFirstId(string)": {
        "notice": "Create a Chainlink request to retrieve API response, find the target data which is located in a list"
      },
      "transferOwnership(address)": {
        "notice": "Allows an owner to begin transferring ownership to a new address, pending."
      },
      "withdrawLink()": {
        "notice": "Allow withdraw of Link tokens from the contract"
      }
    },
    "notice": "THIS IS AN EXAMPLE CONTRACT THAT USES HARDCODED VALUES FOR CLARITY. THIS IS AN EXAMPLE CONTRACT THAT USES UN-AUDITED CODE. DO NOT USE THIS CODE IN PRODUCTION.",
    "version": 1
  }
}